S01700004763634170706C69636174696F6E352E7372656357
S11300000C946B000C9488000C9488000C94880069
S11300100C9488000C9488000C9488000C9488003C
S11300200C9488000C9488000C9488000C9488002C
S11300300C9488000C9488000C9488000C9488001C
S11300400C9488000C9488000C9488000C9488000C
S11300500C94880007634236B79BD8A71A396856B0
S113006018AEBAAB558C1D3CB7CC5763BD6DEDFDD6
S1130070753EF6177231BF000000803F0800000093
S1130080BE922449123EABAAAA2ABECDCCCC4C3E89
S113009000000080BEABAAAAAA3E00000000BF0078
S11300A00000803F0000000000084178D3BB438774
S11300B0D1133D190E3CC3BD4282AD2B3E68EC8288
S11300C076BED98FE1A93E4C80EFFFBE01C4FF7F0D
S11300D03F000000000011241FBECFE5D8E0DEBFC2
S11300E0CDBF11E0A0E6B0E0EEE6F1E102C005907C
S11300F00D92A036B107D9F721E0A0E6B1E001C026
S11301001D92A236B207E1F70E944D030C94B50884
S11301100C94000088BBDF98DE98DD9A82E08A9513
S1130120F1F700C0DD9887EC90E00197F1F700C08B
S11301300000089588BBDF9ADE98DD9A82E08A95F4
S1130140F1F700C0DD9887EC90E00197F1F700C06B
S1130150000008958FEF87BB8ABBDD988FE99FE08D
S11301600197F1F700C0000088E30E948A008EE046
S11301700E948A0081E00E948A008FE99FE0019733
S1130180F1F700C0000086E00E948A000895CF9332
S1130190DF9300D000D0CDB7DEB790E8998390EC20
S11301A09A8394E99B8394ED9C83FE01E60FF11DF1
S11301B081509081890F0E948A0087EC90E001971A
S11301C0F1F700C000000F900F900F900F90DF9197
S11301D0CF9108950F931F93CF93FC012081222385
S11301E091F08C01C0E08FE493EC0197F1F700C02B
S11301F0000080810E949A00CF5FF801EC0FF11D8E
S113020090819111F0CFCF911F910F91089530EF0C
S11302102FEF9FEE6FED5FEB4FE731BB22BB82B355
S11302208F7082BB000080B38F70809360018F3029
S1130230B1F7EFE3FCE93197F1F700C0000080B3B8
S11302408F70809360018F30A1F3FFEF79EF80E02E
S1130250F15070408040E1F700C0000080B38F701F
S1130260809360018F3029F392BB000080B38F70BC
S1130270809360018F3019F01092610124C062BB39
S1130280000080B38F70809360018F3021F081E093
S11302908093610118C052BB000080B38F708093BB
S11302A060018F3021F082E0809361010CC042BB79
S11302B0000080B38F70809360018F3009F4ADCF5C
S11302C083E080936101809160018E3059F4E09164
S11302D06101F0E0EE0FFF1FEE0FFF1FE05AFF4F2A
S11302E0808108958D3059F4E0916101F0E0EE0FC2
S11302F0FF1FEE0FFF1FE05AFF4F818108958B30DF
S113030059F4E0916101F0E0EE0FFF1FEE0FFF1FC3
S1130310E05AFF4F82810895E0916101F0E0EE0F11
S1130320FF1FEE0FFF1FE05AFF4F838108952F92A6
S11303303F924F925F926F927F928F929F92AF9271
S1130340BF92CF92DF92EF92FF920F931F93CF93BE
S1130350DF93382E2A017901380112161306D4F5D9
S1130360C62ED72E890101501109C0E0D0E0F60154
S113037021906F01B801012E000C880B990B0E948B
S1130380A0059B01AC0160E070E080E291E40E9472
S113039099064B015C01622D70E080E090E00E94C0
S11303A0A005A50194010E942C064B015C01BE012D
S11303B0DD0F880B990B0E94A0059B01AC01C501C0
S11303C0B4010E94FC040E946805EB01015011096C
S11303D070F602C0C0E0D0E016141704F4F5620110
S11303E081E0E81AF108640C751C00E010E0F601E5
S11303F051906F01B7010F2C000C880B990B0E94D0
S1130400A0059B01AC0160E070E080E291E40E94F1
S113041099064B015C01652D70E080E090E00E943C
S1130420A005A50194010E942C064B015C01B801B2
S1130430110F880B990B0E94A0059B01AC01C5010B
S1130440B4010E94FC040E9468058B01F1E0EF1ADC
S1130450F108C614D70459F602C000E010E03320B6
S113046009F467C00F2EF0E0EF2EF0E0FF2EF02D20
S11304703A94C32CD12C8FEFC81AD80A812C912C12
S1130480C7010E94A00890E08C179D0709F044C0A2
S1130490C401880F991F880F991F880D991D8F5FBC
S11304A09F4F0E94A00890E08017910709F044C074
S11304B0E401CC0FDD1FCC0FDD1FC80DD91DCE5FAD
S11304C0DF4FCE010E94A008811113C065B3C4019F
S11304D0880F991F880F991F880D991D8D5F9F4F55
S11304E00E94A80861E0CE010E94A80881E090E083
S11304F025C065B3C401880F991F880F991F880D03
S1130500991D8C5F9F4F0E94A80860E0CE010E9455
S1130510A80882E090E012C0EFEF8E1A9E0AF5E080
S1130520EF0EF11CC814D90409F0AACF80E090E0C2
S113053005C080E090E002C080E090E0DF91CF91C0
S11305401F910F91FF90EF90DF90CF90BF90AF90ED
S11305509F908F907F906F905F904F903F902F90DF
S1130560089561E380E090E00E94A8088FE39CE98D
S11305700197F1F700C0000061E381E090E00E9480
S1130580A8088FE39CE90197F1F700C0000060E040
S113059082E090E00E94A8088FE39CE90197F1F7BC
S11305A000C0000060E685E090E00E94A8088FE3A8
S11305B09CE90197F1F700C000006CE286E090E04E
S11305C00E94A8088FE39CE90197F1F700C000009E
S11305D060E087E090E00E94A8088FE39CE901971F
S11305E0F1F700C000000895CF93DF93CDB7DEB7D5
S11305F0C055D1090FB6F894DEBF0FBECDBF8FEF43
S113060084BB85BB8FE1E1E7F0E0DE011196019048
S11306100D928A95E1F7FE01B09683E1DF011D9208
S11306208A95E9F785E1E3EAF0E0DE01D3960190EB
S11306300D928A95E1F7FE01E85BFF4F89E0DF0147
S11306401D928A95E9F70E94B1020E94AA0061E016
S113065081E00E94C700CE0101960E94EA0062E098
S113066081E00E94C700CE01C3960E94EA00BFEF5A
S11306702EE984E2B15020408040E1F700C0000040
S113068081E00E948A00C05BDF4F0FB6F894DEBFA2
S11306900FBECDBFDF91CF910895CF93DF93CDB738
S11306A0DEB7C354D1090FB6F894DEBF0FBECDBF79
S11306B01B821A828CE1FE013496DF01282F1D92E1
S11306C02A95E9F719A218A27E96DF011D928A9550
S11306D0E9F70E94F402FF24F394712C4E01B2E076
S11306E08B0E911C0F2EFEE14F2EF02D6E01E0E2D9
S11306F0CE0ED11CEE24E394CE0101969FAF8EAFB3
S113070021968FAE219722969FAE22979EAD239677
S11307109FAF2397AFAD2496AFAF24976E2C512C87
S11307203C2C2D2CF401242D11922A95E9F7D601A5
S1130730E42D1D92EA95E9F781EC90E00E94EA002D
S113074062E08E2D0E94C700A12CB12C05C0F52CAF
S1130750762C02C0F62C752C0E940701182F898371
S11307608D3309F0D9C08E2D0E948A006E2D8E2DF6
S11307700E94C7008BED90E00E94EA0062E08E2D9B
S11307800E94C70021968FAD219722969FAD229794
S11307900E94EA00FFEF29E688E1F1502040804002
S11307A0E1F700C000008E2D0E948A006E2D8E2D70
S11307B00E94C70088EE90E00E94EA0062E08E2D5D
S11307C00E94C70000E010E0FE2C712C05C0F52C3F
S11307D0762C02C0F62C752C0E94070189838D3378
S11307E009F055C09501432D522D21966FAD2197E7
S11307F022967FAD2297809170000E949701182F56
S11308008E2D0E948A001130A9F46E2D8E2D0E9427
S1130810C7008FEF90E00E94EA009FEFA9E6B8E1DD
S11308209150A040B040E1F700C000008E2D0E941E
S11308308A0078CF1230A9F46E2D8E2D0E94C70045
S113084081E291E00E94EA00EFEFF9E628E1E1504D
S1130850F0402040E1F700C000008E2D0E948A0085
S113086061CF6E2D8E2D0E94C70084E491E00E941A
S1130870EA0062E08E2D0E94C7008FEF94E3ACE0A3
S113088081509040A040E1F700C000004BCF8D3272
S113089071F584E00E948A00E7ECF0E03197F1F70B
S11308A000C0000080E20E949A0087EC90E001976B
S11308B0F1F700C0000086E00E948A00A7ECB0E0D7
S11308C01197F1F700C00000772009F480CFF601FA
S11308D001900020E9F73197EC19FD098FE190E0D0
S11308E08C0F9D1F8E0F911DFC01108275CFFF2070
S11308F009F470CF41E050E023966FAD239724961E
S11309007FAD2497832D922D0E9490088AE20E9445
S11309109A000F5F1F4F60CF8D3271F584E00E9403
S11309208A00A7ECB0E01197F1F700C0000080E264
S11309300E949A00E7ECF0E03197F1F700C0000064
S113094086E00E948A0087EC90E00197F1F700C0EE
S11309500000772009F4FBCEF40101900020E9F7B0
S11309603197E819F909A1E0B0E0AC0FBD1FAE0F53
S1130970B11DFD011082F0CE803219F5862D0E9442
S11309808A00E7ECF0E03197F1F700C00000662D33
S1130990862D0E94C70087EC90E00197F1F700C014
S11309A0000081EC90E00E94EA00A7ECB0E011970F
S11309B0F1F700C0000062E0862D0E94C7005A8251
S11309C0CBCEFF2009F4C6CE41E050E023966FADB4
S11309D0239724967FAD249721968FAD2197229655
S11309E09FAD22970E949008812F0E949A00BFEF2A
S11309F0AB1ABB0AB1CE5058BB27AA270E941305D5
S1130A000C94F2050E94E40538F00E94EB0520F0F6
S1130A1039F49F3F19F426F40C94E1050EF4E095A3
S1130A20E7FB0C94DB05E92F0E94030658F3BA1781
S1130A30620773078407950720F079F4A6F50C94F0
S1130A4025060EF4E0950B2EBA2FA02D0B01B9014B
S1130A5090010C01CA01A0011124FF27591B99F030
S1130A60593F50F4503E68F11A16F040A22F232F3C
S1130A70342F4427585FF3CF469537952795A7958C
S1130A80F0405395C9F77EF41F16BA0B620B730B33
S1130A90840BBAF09150A1F0FF0FBB1F661F771FA4
S1130AA0881FC2F70EC0BA0F621F731F841F48F459
S1130AB0879577956795B795F7959E3F08F0B0CFE2
S1130AC09395880F08F09927EE0F979587950895C9
S1130AD00E946F056894B1110C94260608950E9433
S1130AE00B0688F09F5798F0B92F9927B751B0F0AB
S1130AF0E1F0660F771F881F991F1AF0BA95C9F79E
S1130B0014C0B13091F00E942506B1E008950C9410
S1130B102506672F782F8827B85F39F0B93FCCF3C3
S1130B20869577956795B395D9F73EF4909580951A
S1130B30709561957F4F8F4F9F4F0895E89409C03A
S1130B4097FB3EF490958095709561957F4F8F4FFC
S1130B509F4F9923A9F0F92F96E9BB279395F69512
S1130B60879577956795B795F111F8CFFAF4BB0F90
S1130B7011F460FF1BC06F5F7F4F8F4F9F4F16C0F4
S1130B80882311F096E911C0772321F09EE8872F7E
S1130B90762F05C0662371F096E8862F70E060E03A
S1130BA02AF09A95660F771F881FDAF7880F9695B3
S1130BB0879597F9089597F99F6780E870E060E05A
S1130BC008959FEF80EC089500240A9416161706E2
S1130BD018060906089500240A941216130614062A
S1130BE005060895092E0394000C11F4882352F08D
S1130BF0BB0F40F4BF2B11F460FF04C06F5F7F4F45
S1130C008F4F9F4F089557FD9058440F551F59F02B
S1130C105F3F71F04795880F97FB991F61F09F3FE5
S1130C2079F087950895121613061406551FF2CF0E
S1130C304695F1DF08C0161617061806991FF1CF5E
S1130C4086957105610508940895E894BB27662785
S1130C507727CB0197F908950E943F060C94F2057B
S1130C600E94E40538F00E94EB0520F0952311F072
S1130C700C94DB050C94E10511240C9426060E94C7
S1130C80030670F3959FC1F3950F50E0551F629FC3
S1130C90F001729FBB27F00DB11D639FAA27F00DD1
S1130CA0B11DAA1F649F6627B00DA11D661F829FF8
S1130CB02227B00DA11D621F739FB00DA11D621FDD
S1130CC0839FA00D611D221F749F3327A00D611DFA
S1130CD0231F849F600D211D822F762F6A2F1124DC
S1130CE09F5750409AF0F1F088234AF0EE0FFF1F0F
S1130CF0BB1F661F771F881F91505040A9F79E3F66
S1130D00510580F00C94DB050C9426065F3FE4F358
S1130D10983ED4F3869577956795B795F795E795BB
S1130D209F5FC1F7FE2B880F911D9695879597F9C4
S1130D300895FA01EE0FFF1F309621053105A1F148
S1130D406115710561F48038BFE39B0749F168942C
S1130D509038810561F08038BFEF9B0741F09923FB
S1130D604AF5FF3FE1053105210519F1E89408949E
S1130D70E795D901AA2329F4AB2FBE2FF85FD0F34E
S1130D8010C0FF5F70F4A695E0F7F73950F019F042
S1130D90FF3A38F49F779F930DD00F9007FC90583B
S1130DA0089546F00C94E10560E070E080E89FE36C
S1130DB008954FE79F775F934F933F932F930E943C
S1130DC094072F913F914F915F910E942C060C94B0
S1130DD0F10629F416F00C94DB050C9425060C940A
S1130DE0E1050E940B06A8F39638A0F707F80F92C6
S1130DF0E8942BE33AEA48EB5FE70E9442060F923D
S1130E000F920F924DB75EB70F920E94DC07E4E594
S1130E10F0E00E9423074F915F91EF91FF91E595D8
S1130E20EE1FFF1F49F0FE57E0684427EE0F441FF2
S1130E30FA95E1F74195550B0E9456070F9007FE6E
S1130E400C944A070895DF93CF931F930F93FF9257
S1130E50EF92DF927B018C01689406C0DA2EEF01D9
S1130E600E943F06FE01E894A59125913591459194
S1130E705591A6F3EF010E941305FE019701A80105
S1130E80DA9469F7DF90EF90FF900F911F91CF9163
S1130E90DF9108959B01AC0160E070E080E89FE37E
S1130EA00C9410080C94DB050C9482080E940B0629
S1130EB0D8F39923C9F3940F511DA3F391505040D3
S1130EC094F059F0882332F0660F771F881F9150F1
S1130ED05040C1F79E3F51052CF7880F911D969500
S1130EE0879597F908955F3FACF0983E9CF0BB2737
S1130EF0869577956795B79508F4B1609395C1F792
S1130F00BB0F58F711F460FFE8CF6F5F7F4F8F4F2F
S1130F109F4FE3CF0C94260616F00C9482080C9491
S1130F20E10568940C94DB050E940B06A8F3992351
S1130F30C1F3AEF3DF93CF931F930F93FF92C92FA7
S1130F40DD2788232AF02197660F771F881FDAF799
S1130F5020E030E040E85FEB9FE3883920F0803EFA
S1130F6038F021968F770E94FC04ECE7F0E004C08F
S1130F700E94FC04E9EAF0E00E9423078B01BE0111
S1130F80EC01FB2E6F5771097595771F880B990B30
S1130F900E94A00528E132E741E35FE30E943F0697
S1130FA0AF2D9801AE01FF900F911F91CF91DF916A
S1130FB00E9413050C94F205FA01DC01AA0FBB1F71
S1130FC09B01AC01BF5728F42227332744275078CC
S1130FD020C0B75190F4AB2F002446953795279540
S1130FE0011CA395D2F3002071F0220F331F441F7C
S1130FF0B395DAF30ED00C94FB0461307105A0E8CC
S11310008A07B94630F49B01AC0166277727882705
S11310109078309621F0208331834283538308955E
S11310200E9424080C94F2050E94EB0558F00E94DB
S1131030E40540F029F45F3F29F00C94DB055111DD
S11310400C9426060C94E1050E94030668F3992388
S1131050B1F3552391F3951B550BBB27AA276217B0
S11310607307840738F09F5F5F4F220F331F441FBD
S1131070AA1FA9F335D00E2E3AF0E0E832D09150F1
S11310805040E695001CCAF72BD0FE2F29D0660FDE
S1131090771F881FBB1F261737074807AB07B0E821
S11310A009F0BB0B802DBF01FF2793585F4F3AF027
S11310B09E3F510578F00C94DB050C9426065F3FA7
S11310C0E4F3983ED4F3869577956795B795F795AD
S11310D09F5FC9F7880F911D9695879597F9089595
S11310E0E1E0660F771F881FBB1F62177307840731
S11310F0BA0720F0621B730B840BBA0BEE1F88F740
S1131100E09508959F3F31F0915020F487957795AD
S11311106795B795880F911D9695879597F90895CA
S1131120FB01DC010D900020E9F71197415050407C
S113113028F0019000200D92C9F708951C9208959B
S1131140E199FECF9FBB8EBBE09A99278DB308959A
S1131150262FE199FECF9FBB8EBB2DBB0FB6F89413
S1111160E29AE19A0FBE01960895F894FFCF2B
S113116E37343120383532303936333D2F2A2D2B52
S113117E0250726F6A656374202D20415652204DC1
S113118E6963726F20636F6E74726F6C6C6572003C
S113119E000000000000000000000000000000003D
S11311AE00000053414445474849202D20504F4FDD
S11311BE52594547414E4500000000000000000012
S11311CE00456E74657220596F75722043617264A6
S11311DE204E756D626572203A2000596F7572202B
S11311EE43617264203A2000456E74657220596F13
S11311FE75722050617373776F7264203A20004CBD
S113120E6F6767656420696E2053756363657373D6
S113121E66756C6C79202D2D2057656C636F6D652A
S113122E004C6F67676564206F7574205375636334
S113123E65737366756C6C79202D2D20476F6F6402
S113124E4279650057726F6E6720757365726E61B1
S113125E6D65206F722070617373776F7264000016
S9030000FC
